{
  "contractName": "SmartContract",
  "abi": [
    {
      "anonymous": false,
      "inputs": [
        {
          "indexed": true,
          "internalType": "address",
          "name": "owner",
          "type": "address"
        },
        {
          "indexed": true,
          "internalType": "bytes32",
          "name": "fileHash",
          "type": "bytes32"
        },
        {
          "indexed": false,
          "internalType": "string",
          "name": "ipfsCid",
          "type": "string"
        },
        {
          "indexed": false,
          "internalType": "string",
          "name": "ownerEmail",
          "type": "string"
        },
        {
          "indexed": false,
          "internalType": "uint256",
          "name": "size",
          "type": "uint256"
        },
        {
          "indexed": false,
          "internalType": "uint256",
          "name": "timestamp",
          "type": "uint256"
        }
      ],
      "name": "FileAdded",
      "type": "event"
    },
    {
      "anonymous": false,
      "inputs": [
        {
          "indexed": true,
          "internalType": "uint256",
          "name": "index",
          "type": "uint256"
        },
        {
          "indexed": true,
          "internalType": "address",
          "name": "author",
          "type": "address"
        },
        {
          "indexed": false,
          "internalType": "uint256",
          "name": "timestamp",
          "type": "uint256"
        },
        {
          "indexed": false,
          "internalType": "string",
          "name": "data",
          "type": "string"
        }
      ],
      "name": "FileStatusCheck",
      "type": "event"
    },
    {
      "anonymous": false,
      "inputs": [
        {
          "indexed": true,
          "internalType": "uint256",
          "name": "index",
          "type": "uint256"
        },
        {
          "indexed": true,
          "internalType": "address",
          "name": "author",
          "type": "address"
        },
        {
          "indexed": false,
          "internalType": "uint256",
          "name": "timestamp",
          "type": "uint256"
        },
        {
          "indexed": false,
          "internalType": "string",
          "name": "data",
          "type": "string"
        }
      ],
      "name": "Registered",
      "type": "event"
    },
    {
      "inputs": [
        {
          "internalType": "uint256",
          "name": "",
          "type": "uint256"
        }
      ],
      "name": "fileHashes",
      "outputs": [
        {
          "internalType": "bytes32",
          "name": "",
          "type": "bytes32"
        }
      ],
      "stateMutability": "view",
      "type": "function",
      "constant": true
    },
    {
      "inputs": [
        {
          "internalType": "bytes32",
          "name": "",
          "type": "bytes32"
        }
      ],
      "name": "files",
      "outputs": [
        {
          "internalType": "address",
          "name": "owner",
          "type": "address"
        },
        {
          "internalType": "string",
          "name": "ipfsCid",
          "type": "string"
        },
        {
          "internalType": "bytes32",
          "name": "fileHash",
          "type": "bytes32"
        },
        {
          "internalType": "string",
          "name": "ownerEmail",
          "type": "string"
        },
        {
          "internalType": "uint256",
          "name": "size",
          "type": "uint256"
        },
        {
          "internalType": "uint256",
          "name": "timestamp",
          "type": "uint256"
        }
      ],
      "stateMutability": "view",
      "type": "function",
      "constant": true
    },
    {
      "inputs": [
        {
          "internalType": "uint256",
          "name": "",
          "type": "uint256"
        }
      ],
      "name": "filestatus",
      "outputs": [
        {
          "internalType": "uint256",
          "name": "timestamp",
          "type": "uint256"
        },
        {
          "internalType": "string",
          "name": "filedata",
          "type": "string"
        }
      ],
      "stateMutability": "view",
      "type": "function",
      "constant": true
    },
    {
      "inputs": [
        {
          "internalType": "uint256",
          "name": "",
          "type": "uint256"
        }
      ],
      "name": "register",
      "outputs": [
        {
          "internalType": "uint256",
          "name": "timestamp",
          "type": "uint256"
        },
        {
          "internalType": "string",
          "name": "data",
          "type": "string"
        }
      ],
      "stateMutability": "view",
      "type": "function",
      "constant": true
    },
    {
      "inputs": [
        {
          "internalType": "string",
          "name": "r",
          "type": "string"
        }
      ],
      "name": "setRegister",
      "outputs": [],
      "stateMutability": "nonpayable",
      "type": "function"
    },
    {
      "inputs": [],
      "name": "getRegister",
      "outputs": [
        {
          "components": [
            {
              "internalType": "uint256",
              "name": "timestamp",
              "type": "uint256"
            },
            {
              "internalType": "string",
              "name": "data",
              "type": "string"
            }
          ],
          "internalType": "struct SmartContract.Register[]",
          "name": "",
          "type": "tuple[]"
        }
      ],
      "stateMutability": "view",
      "type": "function",
      "constant": true
    },
    {
      "inputs": [
        {
          "internalType": "string",
          "name": "r",
          "type": "string"
        }
      ],
      "name": "setFileStatus",
      "outputs": [],
      "stateMutability": "nonpayable",
      "type": "function"
    },
    {
      "inputs": [],
      "name": "getFileStatus",
      "outputs": [
        {
          "components": [
            {
              "internalType": "uint256",
              "name": "timestamp",
              "type": "uint256"
            },
            {
              "internalType": "string",
              "name": "filedata",
              "type": "string"
            }
          ],
          "internalType": "struct SmartContract.FileStatus[]",
          "name": "",
          "type": "tuple[]"
        }
      ],
      "stateMutability": "view",
      "type": "function",
      "constant": true
    },
    {
      "inputs": [
        {
          "internalType": "bytes32",
          "name": "fileHash",
          "type": "bytes32"
        }
      ],
      "name": "isDuplicate",
      "outputs": [
        {
          "internalType": "bool",
          "name": "",
          "type": "bool"
        }
      ],
      "stateMutability": "view",
      "type": "function",
      "constant": true
    },
    {
      "inputs": [
        {
          "internalType": "bytes32",
          "name": "fileHash",
          "type": "bytes32"
        },
        {
          "internalType": "string",
          "name": "ipfsCid",
          "type": "string"
        },
        {
          "internalType": "string",
          "name": "ownerEmail",
          "type": "string"
        },
        {
          "internalType": "uint256",
          "name": "size",
          "type": "uint256"
        }
      ],
      "name": "addFile",
      "outputs": [],
      "stateMutability": "nonpayable",
      "type": "function"
    },
    {
      "inputs": [
        {
          "internalType": "bytes32",
          "name": "fileHash",
          "type": "bytes32"
        }
      ],
      "name": "getFile",
      "outputs": [
        {
          "internalType": "address",
          "name": "owner",
          "type": "address"
        },
        {
          "internalType": "string",
          "name": "ipfsCid",
          "type": "string"
        },
        {
          "internalType": "string",
          "name": "ownerEmail",
          "type": "string"
        },
        {
          "internalType": "uint256",
          "name": "size",
          "type": "uint256"
        },
        {
          "internalType": "uint256",
          "name": "timestamp",
          "type": "uint256"
        }
      ],
      "stateMutability": "view",
      "type": "function",
      "constant": true
    },
    {
      "inputs": [],
      "name": "totalFiles",
      "outputs": [
        {
          "internalType": "uint256",
          "name": "",
          "type": "uint256"
        }
      ],
      "stateMutability": "view",
      "type": "function",
      "constant": true
    },
    {
      "inputs": [
        {
          "internalType": "string",
          "name": "ownerEmail",
          "type": "string"
        }
      ],
      "name": "getFilesByOwner",
      "outputs": [
        {
          "components": [
            {
              "internalType": "address",
              "name": "owner",
              "type": "address"
            },
            {
              "internalType": "string",
              "name": "ipfsCid",
              "type": "string"
            },
            {
              "internalType": "bytes32",
              "name": "fileHash",
              "type": "bytes32"
            },
            {
              "internalType": "string",
              "name": "ownerEmail",
              "type": "string"
            },
            {
              "internalType": "uint256",
              "name": "size",
              "type": "uint256"
            },
            {
              "internalType": "uint256",
              "name": "timestamp",
              "type": "uint256"
            }
          ],
          "internalType": "struct SmartContract.FileMeta[]",
          "name": "",
          "type": "tuple[]"
        }
      ],
      "stateMutability": "view",
      "type": "function",
      "constant": true
    }
  ],
  "bytecode": "0x608060405234801561001057600080fd5b50612436806100206000396000f3fe608060405234801561001057600080fd5b50600436106100cf5760003560e01c806398c9adff1161008c578063c110f4c911610066578063c110f4c91461022e578063e6533e451461025e578063f207564e1461028e578063fbf9701b146102bf576100cf565b806398c9adff146101ad578063b3eea158146101e2578063bb42dcec146101fe576100cf565b8063473aa2a5146100d45780636d6c780b146101085780637170162614610126578063887360021461014257806392cf05571461015e578063937e62591461017c575b600080fd5b6100ee60048036038101906100e991906115d5565b6102dd565b6040516100ff9594939291906116f5565b60405180910390f35b61011061045f565b60405161011d91906118ae565b60405180910390f35b610140600480360381019061013b9190611a05565b61055a565b005b61015c60048036038101906101579190611a05565b610672565b005b61016661078a565b6040516101739190611a4e565b60405180910390f35b61019660048036038101906101919190611a95565b610797565b6040516101a4929190611ac2565b60405180910390f35b6101c760048036038101906101c291906115d5565b610853565b6040516101d996959493929190611b01565b60405180910390f35b6101fc60048036038101906101f79190611b70565b6109bf565b005b610218600480360381019061021391906115d5565b610cbc565b6040516102259190611c2a565b60405180910390f35b61024860048036038101906102439190611a95565b610d2b565b6040516102559190611c45565b60405180910390f35b61027860048036038101906102739190611a05565b610d4f565b6040516102859190611dd0565b60405180910390f35b6102a860048036038101906102a39190611a95565b61112a565b6040516102b6929190611ac2565b60405180910390f35b6102c76111e6565b6040516102d49190611ef1565b60405180910390f35b600060608060008060006001600088815260200190815260200160002090508060000160009054906101000a900473ffffffffffffffffffffffffffffffffffffffff1681600101826003018360040154846005015483805461033f90611f42565b80601f016020809104026020016040519081016040528092919081815260200182805461036b90611f42565b80156103b85780601f1061038d576101008083540402835291602001916103b8565b820191906000526020600020905b81548152906001019060200180831161039b57829003601f168201915b505050505093508280546103cb90611f42565b80601f01602080910402602001604051908101604052809291908181526020018280546103f790611f42565b80156104445780601f1061041957610100808354040283529160200191610444565b820191906000526020600020905b81548152906001019060200180831161042757829003601f168201915b50505050509250955095509550955095505091939590929450565b60606000805480602002602001604051908101604052809291908181526020016000905b828210156105515783829060005260206000209060020201604051806040016040529081600082015481526020016001820180546104c090611f42565b80601f01602080910402602001604051908101604052809291908181526020018280546104ec90611f42565b80156105395780601f1061050e57610100808354040283529160200191610539565b820191906000526020600020905b81548152906001019060200180831161051c57829003601f168201915b50505050508152505081526020019060010190610483565b50505050905090565b600081511161059e576040517f08c379a000000000000000000000000000000000000000000000000000000000815260040161059590611fc0565b60405180910390fd5b600060405180604001604052804281526020018381525090506003819080600181540180825580915050600190039060005260206000209060020201600090919091909150600082015181600001556020820151816001019080519060200190610609929190611499565b5050503373ffffffffffffffffffffffffffffffffffffffff166001600380549050610635919061200f565b7f03d6ad4b97a008a908a6d4bc9f0f32538dc706761bcd0ad88b8213637d6f64a74285604051610666929190611ac2565b60405180910390a35050565b60008151116106b6576040517f08c379a00000000000000000000000000000000000000000000000000000000081526004016106ad90611fc0565b60405180910390fd5b600060405180604001604052804281526020018381525090506000819080600181540180825580915050600190039060005260206000209060020201600090919091909150600082015181600001556020820151816001019080519060200190610721929190611499565b5050503373ffffffffffffffffffffffffffffffffffffffff16600160008054905061074d919061200f565b7fd91db5c2705469573bcb8ba9a33bf529068270dc383a51f27aaf275a6204c076428560405161077e929190611ac2565b60405180910390a35050565b6000600280549050905090565b600381815481106107a757600080fd5b90600052602060002090600202016000915090508060000154908060010180546107d090611f42565b80601f01602080910402602001604051908101604052809291908181526020018280546107fc90611f42565b80156108495780601f1061081e57610100808354040283529160200191610849565b820191906000526020600020905b81548152906001019060200180831161082c57829003601f168201915b5050505050905082565b60016020528060005260406000206000915090508060000160009054906101000a900473ffffffffffffffffffffffffffffffffffffffff169080600101805461089c90611f42565b80601f01602080910402602001604051908101604052809291908181526020018280546108c890611f42565b80156109155780601f106108ea57610100808354040283529160200191610915565b820191906000526020600020905b8154815290600101906020018083116108f857829003601f168201915b50505050509080600201549080600301805461093090611f42565b80601f016020809104026020016040519081016040528092919081815260200182805461095c90611f42565b80156109a95780601f1061097e576101008083540402835291602001916109a9565b820191906000526020600020905b81548152906001019060200180831161098c57829003601f168201915b5050505050908060040154908060050154905086565b6000801b841415610a05576040517f08c379a00000000000000000000000000000000000000000000000000000000081526004016109fc9061208f565b60405180910390fd5b6000835111610a49576040517f08c379a0000000000000000000000000000000000000000000000000000000008152600401610a40906120fb565b60405180910390fd5b6000825111610a8d576040517f08c379a0000000000000000000000000000000000000000000000000000000008152600401610a8490612167565b60405180910390fd5b600073ffffffffffffffffffffffffffffffffffffffff166001600086815260200190815260200160002060000160009054906101000a900473ffffffffffffffffffffffffffffffffffffffff1673ffffffffffffffffffffffffffffffffffffffff1614610b32576040517f08c379a0000000000000000000000000000000000000000000000000000000008152600401610b29906121d3565b60405180910390fd5b6000610b3d836112e1565b90506040518060c001604052803373ffffffffffffffffffffffffffffffffffffffff168152602001858152602001868152602001828152602001838152602001428152506001600087815260200190815260200160002060008201518160000160006101000a81548173ffffffffffffffffffffffffffffffffffffffff021916908373ffffffffffffffffffffffffffffffffffffffff1602179055506020820151816001019080519060200190610bf8929190611499565b50604082015181600201556060820151816003019080519060200190610c1f929190611499565b506080820151816004015560a082015181600501559050506002859080600181540180825580915050600190039060005260206000200160009091909190915055843373ffffffffffffffffffffffffffffffffffffffff167f5230a0bf72a221a0d9b1cdf2df6efbb5fd5474b0dbe181b6baef61c13637156786848642604051610cad94939291906121f3565b60405180910390a35050505050565b60008073ffffffffffffffffffffffffffffffffffffffff166001600084815260200190815260200160002060000160009054906101000a900473ffffffffffffffffffffffffffffffffffffffff1673ffffffffffffffffffffffffffffffffffffffff1614159050919050565b60028181548110610d3b57600080fd5b906000526020600020016000915090505481565b60606000610d5c836112e1565b90506000805b600280549050811015610e185782604051602001610d809190612282565b604051602081830303815290604052805190602001206001600060028481548110610dae57610dad612299565b5b90600052602060002001548152602001908152602001600020600301604051602001610dda919061235c565b604051602081830303815290604052805190602001201415610e05578180610e0190612373565b9250505b8080610e1090612373565b915050610d62565b5060008167ffffffffffffffff811115610e3557610e346118da565b5b604051908082528060200260200182016040528015610e6e57816020015b610e5b61151f565b815260200190600190039081610e535790505b5090506000805b60028054905081101561111d5784604051602001610e939190612282565b604051602081830303815290604052805190602001206001600060028481548110610ec157610ec0612299565b5b90600052602060002001548152602001908152602001600020600301604051602001610eed919061235c565b60405160208183030381529060405280519060200120141561110a576001600060028381548110610f2157610f20612299565b5b906000526020600020015481526020019081526020016000206040518060c00160405290816000820160009054906101000a900473ffffffffffffffffffffffffffffffffffffffff1673ffffffffffffffffffffffffffffffffffffffff1673ffffffffffffffffffffffffffffffffffffffff168152602001600182018054610fab90611f42565b80601f0160208091040260200160405190810160405280929190818152602001828054610fd790611f42565b80156110245780601f10610ff957610100808354040283529160200191611024565b820191906000526020600020905b81548152906001019060200180831161100757829003601f168201915b505050505081526020016002820154815260200160038201805461104790611f42565b80601f016020809104026020016040519081016040528092919081815260200182805461107390611f42565b80156110c05780601f10611095576101008083540402835291602001916110c0565b820191906000526020600020905b8154815290600101906020018083116110a357829003601f168201915b50505050508152602001600482015481526020016005820154815250508383815181106110f0576110ef612299565b5b6020026020010181905250818061110690612373565b9250505b808061111590612373565b915050610e75565b5081945050505050919050565b6000818154811061113a57600080fd5b906000526020600020906002020160009150905080600001549080600101805461116390611f42565b80601f016020809104026020016040519081016040528092919081815260200182805461118f90611f42565b80156111dc5780601f106111b1576101008083540402835291602001916111dc565b820191906000526020600020905b8154815290600101906020018083116111bf57829003601f168201915b5050505050905082565b60606003805480602002602001604051908101604052809291908181526020016000905b828210156112d857838290600052602060002090600202016040518060400160405290816000820154815260200160018201805461124790611f42565b80601f016020809104026020016040519081016040528092919081815260200182805461127390611f42565b80156112c05780601f10611295576101008083540402835291602001916112c0565b820191906000526020600020905b8154815290600101906020018083116112a357829003601f168201915b5050505050815250508152602001906001019061120a565b50505050905090565b606060008290506000815167ffffffffffffffff811115611305576113046118da565b5b6040519080825280601f01601f1916602001820160405280156113375781602001600182028036833780820191505090505b50905060005b825181101561148e57604183828151811061135b5761135a612299565b5b602001015160f81c60f81b60f81c60ff161015801561139e5750605a83828151811061138a57611389612299565b5b602001015160f81c60f81b60f81c60ff1611155b1561141a5760208382815181106113b8576113b7612299565b5b602001015160f81c60f81b60f81c6113d091906123c9565b60f81b8282815181106113e6576113e5612299565b5b60200101907effffffffffffffffffffffffffffffffffffffffffffffffffffffffffffff1916908160001a90535061147b565b82818151811061142d5761142c612299565b5b602001015160f81c60f81b82828151811061144b5761144a612299565b5b60200101907effffffffffffffffffffffffffffffffffffffffffffffffffffffffffffff1916908160001a9053505b808061148690612373565b91505061133d565b508092505050919050565b8280546114a590611f42565b90600052602060002090601f0160209004810192826114c7576000855561150e565b82601f106114e057805160ff191683800117855561150e565b8280016001018555821561150e579182015b8281111561150d5782518255916020019190600101906114f2565b5b50905061151b919061156e565b5090565b6040518060c00160405280600073ffffffffffffffffffffffffffffffffffffffff16815260200160608152602001600080191681526020016060815260200160008152602001600081525090565b5b8082111561158757600081600090555060010161156f565b5090565b6000604051905090565b600080fd5b600080fd5b6000819050919050565b6115b28161159f565b81146115bd57600080fd5b50565b6000813590506115cf816115a9565b92915050565b6000602082840312156115eb576115ea611595565b5b60006115f9848285016115c0565b91505092915050565b600073ffffffffffffffffffffffffffffffffffffffff82169050919050565b600061162d82611602565b9050919050565b61163d81611622565b82525050565b600081519050919050565b600082825260208201905092915050565b60005b8381101561167d578082015181840152602081019050611662565b8381111561168c576000848401525b50505050565b6000601f19601f8301169050919050565b60006116ae82611643565b6116b8818561164e565b93506116c881856020860161165f565b6116d181611692565b840191505092915050565b6000819050919050565b6116ef816116dc565b82525050565b600060a08201905061170a6000830188611634565b818103602083015261171c81876116a3565b9050818103604083015261173081866116a3565b905061173f60608301856116e6565b61174c60808301846116e6565b9695505050505050565b600081519050919050565b600082825260208201905092915050565b6000819050602082019050919050565b61178b816116dc565b82525050565b600082825260208201905092915050565b60006117ad82611643565b6117b78185611791565b93506117c781856020860161165f565b6117d081611692565b840191505092915050565b60006040830160008301516117f36000860182611782565b506020830151848203602086015261180b82826117a2565b9150508091505092915050565b600061182483836117db565b905092915050565b6000602082019050919050565b600061184482611756565b61184e8185611761565b93508360208202850161186085611772565b8060005b8581101561189c578484038952815161187d8582611818565b94506118888361182c565b925060208a01995050600181019050611864565b50829750879550505050505092915050565b600060208201905081810360008301526118c88184611839565b905092915050565b600080fd5b600080fd5b7f4e487b7100000000000000000000000000000000000000000000000000000000600052604160045260246000fd5b61191282611692565b810181811067ffffffffffffffff82111715611931576119306118da565b5b80604052505050565b600061194461158b565b90506119508282611909565b919050565b600067ffffffffffffffff8211156119705761196f6118da565b5b61197982611692565b9050602081019050919050565b82818337600083830152505050565b60006119a86119a384611955565b61193a565b9050828152602081018484840111156119c4576119c36118d5565b5b6119cf848285611986565b509392505050565b600082601f8301126119ec576119eb6118d0565b5b81356119fc848260208601611995565b91505092915050565b600060208284031215611a1b57611a1a611595565b5b600082013567ffffffffffffffff811115611a3957611a3861159a565b5b611a45848285016119d7565b91505092915050565b6000602082019050611a6360008301846116e6565b92915050565b611a72816116dc565b8114611a7d57600080fd5b50565b600081359050611a8f81611a69565b92915050565b600060208284031215611aab57611aaa611595565b5b6000611ab984828501611a80565b91505092915050565b6000604082019050611ad760008301856116e6565b8181036020830152611ae981846116a3565b90509392505050565b611afb8161159f565b82525050565b600060c082019050611b166000830189611634565b8181036020830152611b2881886116a3565b9050611b376040830187611af2565b8181036060830152611b4981866116a3565b9050611b5860808301856116e6565b611b6560a08301846116e6565b979650505050505050565b60008060008060808587031215611b8a57611b89611595565b5b6000611b98878288016115c0565b945050602085013567ffffffffffffffff811115611bb957611bb861159a565b5b611bc5878288016119d7565b935050604085013567ffffffffffffffff811115611be657611be561159a565b5b611bf2878288016119d7565b9250506060611c0387828801611a80565b91505092959194509250565b60008115159050919050565b611c2481611c0f565b82525050565b6000602082019050611c3f6000830184611c1b565b92915050565b6000602082019050611c5a6000830184611af2565b92915050565b600081519050919050565b600082825260208201905092915050565b6000819050602082019050919050565b611c9581611622565b82525050565b611ca48161159f565b82525050565b600060c083016000830151611cc26000860182611c8c565b5060208301518482036020860152611cda82826117a2565b9150506040830151611cef6040860182611c9b565b5060608301518482036060860152611d0782826117a2565b9150506080830151611d1c6080860182611782565b5060a0830151611d2f60a0860182611782565b508091505092915050565b6000611d468383611caa565b905092915050565b6000602082019050919050565b6000611d6682611c60565b611d708185611c6b565b935083602082028501611d8285611c7c565b8060005b85811015611dbe5784840389528151611d9f8582611d3a565b9450611daa83611d4e565b925060208a01995050600181019050611d86565b50829750879550505050505092915050565b60006020820190508181036000830152611dea8184611d5b565b905092915050565b600081519050919050565b600082825260208201905092915050565b6000819050602082019050919050565b6000604083016000830151611e366000860182611782565b5060208301518482036020860152611e4e82826117a2565b9150508091505092915050565b6000611e678383611e1e565b905092915050565b6000602082019050919050565b6000611e8782611df2565b611e918185611dfd565b935083602082028501611ea385611e0e565b8060005b85811015611edf5784840389528151611ec08582611e5b565b9450611ecb83611e6f565b925060208a01995050600181019050611ea7565b50829750879550505050505092915050565b60006020820190508181036000830152611f0b8184611e7c565b905092915050565b7f4e487b7100000000000000000000000000000000000000000000000000000000600052602260045260246000fd5b60006002820490506001821680611f5a57607f821691505b60208210811415611f6e57611f6d611f13565b5b50919050565b7f456d7074792064617461206e6f7420616c6c6f77656400000000000000000000600082015250565b6000611faa60168361164e565b9150611fb582611f74565b602082019050919050565b60006020820190508181036000830152611fd981611f9d565b9050919050565b7f4e487b7100000000000000000000000000000000000000000000000000000000600052601160045260246000fd5b600061201a826116dc565b9150612025836116dc565b92508282101561203857612037611fe0565b5b828203905092915050565b7f496e76616c69642066696c654861736800000000000000000000000000000000600082015250565b600061207960108361164e565b915061208482612043565b602082019050919050565b600060208201905081810360008301526120a88161206c565b9050919050565b7f496e76616c696420434944000000000000000000000000000000000000000000600082015250565b60006120e5600b8361164e565b91506120f0826120af565b602082019050919050565b60006020820190508181036000830152612114816120d8565b9050919050565b7f4f776e657220656d61696c207265717569726564000000000000000000000000600082015250565b600061215160148361164e565b915061215c8261211b565b602082019050919050565b6000602082019050818103600083015261218081612144565b9050919050565b7f4475706c69636174652066696c65000000000000000000000000000000000000600082015250565b60006121bd600e8361164e565b91506121c882612187565b602082019050919050565b600060208201905081810360008301526121ec816121b0565b9050919050565b6000608082019050818103600083015261220d81876116a3565b9050818103602083015261222181866116a3565b905061223060408301856116e6565b61223d60608301846116e6565b95945050505050565b600081905092915050565b600061225c82611643565b6122668185612246565b935061227681856020860161165f565b80840191505092915050565b600061228e8284612251565b915081905092915050565b7f4e487b7100000000000000000000000000000000000000000000000000000000600052603260045260246000fd5b60008190508160005260206000209050919050565b600081546122ea81611f42565b6122f48186612246565b9450600182166000811461230f576001811461232057612353565b60ff19831686528186019350612353565b612329856122c8565b60005b8381101561234b5781548189015260018201915060208101905061232c565b838801955050505b50505092915050565b600061236882846122dd565b915081905092915050565b600061237e826116dc565b91507fffffffffffffffffffffffffffffffffffffffffffffffffffffffffffffffff8214156123b1576123b0611fe0565b5b600182019050919050565b600060ff82169050919050565b60006123d4826123bc565b91506123df836123bc565b92508260ff038211156123f5576123f4611fe0565b5b82820190509291505056fea2646970667358221220ecfa3f4dbc7df2e96af097dbcc7dee83a54fe2060039115dba88a86072b2adfd64736f6c634300080b0033",
  "immutableReferences": {},
  "source": "// SPDX-License-Identifier: MIT\r\npragma solidity 0.8.11;\r\n\r\ncontract SmartContract {\r\n    // -------------------------\r\n    // Registration (unchanged)\r\n    // -------------------------\r\n    struct Register {\r\n        uint256 timestamp;\r\n        string data;\r\n    }\r\n    Register[] public register;\r\n\r\n\r\n    // -------------------------\r\n    // File metadata with email\r\n    // -------------------------\r\n    struct FileMeta {\r\n        address owner;\r\n        string ipfsCid;     // CID stored on-chain\r\n        bytes32 fileHash;   // sha256(file_bytes)\r\n        string ownerEmail;  // stored always in lowercase\r\n        uint256 size;\r\n        uint256 timestamp;\r\n    }\r\n\r\n    mapping(bytes32 => FileMeta) public files;\r\n    bytes32[] public fileHashes;\r\n\r\n     struct FileStatus {\r\n        uint256 timestamp;\r\n        string filedata;\r\n    }\r\n    FileStatus[] public filestatus;\r\n\r\n\r\n\r\n\r\n    // Events\r\n    event Registered(uint256 indexed index, address indexed author, uint256 timestamp, string data);\r\n    event FileAdded(\r\n        address indexed owner,\r\n        bytes32 indexed fileHash,\r\n        string ipfsCid,\r\n        string ownerEmail,\r\n        uint256 size,\r\n        uint256 timestamp\r\n    );\r\n    event FileStatusCheck(uint256 indexed index, address indexed author, uint256 timestamp, string data);\r\n    // -------------------------\r\n    // Registration functions\r\n    // -------------------------\r\n    function setRegister(string memory r) public {\r\n        require(bytes(r).length > 0, \"Empty data not allowed\");\r\n\r\n        Register memory newContent = Register({\r\n            data: r,\r\n            timestamp: block.timestamp\r\n        });\r\n\r\n        register.push(newContent);\r\n        emit Registered(register.length - 1, msg.sender, block.timestamp, r);\r\n    }\r\n\r\n    function getRegister() public view returns (Register[] memory) {\r\n        return register;\r\n    }\r\n\r\n// -------------------------\r\n    // file status functions\r\n    // -------------------------\r\n    function setFileStatus(string memory r) public {\r\n        require(bytes(r).length > 0, \"Empty data not allowed\");\r\n\r\n        FileStatus memory newContent = FileStatus({\r\n            filedata: r,\r\n            timestamp: block.timestamp\r\n        });\r\n\r\n        filestatus.push(newContent);\r\n        emit FileStatusCheck(filestatus.length - 1, msg.sender, block.timestamp, r);\r\n    }\r\n\r\n    function getFileStatus() public view returns (FileStatus[] memory) {\r\n        return filestatus;\r\n    }\r\n\r\n\r\n\r\n    // -------------------------\r\n    // File storage / deduplication\r\n    // -------------------------\r\n    function isDuplicate(bytes32 fileHash) public view returns (bool) {\r\n        return files[fileHash].owner != address(0);\r\n    }\r\n\r\n    // helper: convert ASCII uppercase letters to lowercase\r\n    function _toLower(string memory str) internal pure returns (string memory) {\r\n        bytes memory bStr = bytes(str);\r\n        bytes memory bLower = new bytes(bStr.length);\r\n        for (uint i = 0; i < bStr.length; i++) {\r\n            // Uppercase A-Z = 6590\r\n            if (uint8(bStr[i]) >= 65 && uint8(bStr[i]) <= 90) {\r\n                bLower[i] = bytes1(uint8(bStr[i]) + 32);\r\n            } else {\r\n                bLower[i] = bStr[i];\r\n            }\r\n        }\r\n        return string(bLower);\r\n    }\r\n\r\n    function addFile(bytes32 fileHash, string memory ipfsCid, string memory ownerEmail, uint256 size) public {\r\n        require(fileHash != bytes32(0), \"Invalid fileHash\");\r\n        require(bytes(ipfsCid).length > 0, \"Invalid CID\");\r\n        require(bytes(ownerEmail).length > 0, \"Owner email required\");\r\n        require(files[fileHash].owner == address(0), \"Duplicate file\");\r\n\r\n        string memory normalizedEmail = _toLower(ownerEmail);\r\n\r\n        files[fileHash] = FileMeta({\r\n            owner: msg.sender,\r\n            ipfsCid: ipfsCid,\r\n            fileHash: fileHash,\r\n            ownerEmail: normalizedEmail,\r\n            size: size,\r\n            timestamp: block.timestamp\r\n        });\r\n\r\n        fileHashes.push(fileHash);\r\n\r\n        emit FileAdded(msg.sender, fileHash, ipfsCid, normalizedEmail, size, block.timestamp);\r\n    }\r\n\r\n    function getFile(bytes32 fileHash)\r\n        public\r\n        view\r\n        returns (\r\n            address owner,\r\n            string memory ipfsCid,\r\n            string memory ownerEmail,\r\n            uint256 size,\r\n            uint256 timestamp\r\n        )\r\n    {\r\n        FileMeta storage f = files[fileHash];\r\n        return (f.owner, f.ipfsCid, f.ownerEmail, f.size, f.timestamp);\r\n    }\r\n\r\n    function totalFiles() public view returns (uint256) {\r\n        return fileHashes.length;\r\n    }\r\n\r\n    function getFilesByOwner(string memory ownerEmail)\r\n        public\r\n        view\r\n        returns (FileMeta[] memory)\r\n    {\r\n        string memory normalizedEmail = _toLower(ownerEmail);\r\n        uint256 count = 0;\r\n\r\n        // Count how many files belong to this owner\r\n        for (uint256 i = 0; i < fileHashes.length; i++) {\r\n            if (\r\n                keccak256(abi.encodePacked(files[fileHashes[i]].ownerEmail)) ==\r\n                keccak256(abi.encodePacked(normalizedEmail))\r\n            ) {\r\n                count++;\r\n            }\r\n        }\r\n\r\n        // Collect results\r\n        FileMeta[] memory result = new FileMeta[](count);\r\n        uint256 j = 0;\r\n        for (uint256 i = 0; i < fileHashes.length; i++) {\r\n            if (\r\n                keccak256(abi.encodePacked(files[fileHashes[i]].ownerEmail)) ==\r\n                keccak256(abi.encodePacked(normalizedEmail))\r\n            ) {\r\n                result[j] = files[fileHashes[i]];\r\n                j++;\r\n            }\r\n        }\r\n        return result;\r\n    }\r\n}\r\n",
  "sourcePath": "C:\\Users\\DELL\\OneDrive\\Desktop\\MAJOR PROJECT\\Blockchain_Based_Decentralized_Cloud_Storage\\Eth_Blockchain\\contracts\\SmartContract.sol",
  "compiler": {
    "name": "solc",
    "version": "0.8.11+commit.d7f03943.Emscripten.clang"
  },
  "schemaVersion": "3.4.16",
  "updatedAt": "2025-11-20T23:25:29.676Z",
  "networkType": "ethereum",
  "devdoc": {
    "kind": "dev",
    "methods": {},
    "version": 1
  },
  "userdoc": {
    "kind": "user",
    "methods": {},
    "version": 1
  }
}